:100000000C9435000C945D000C945D000C945D0024
:100010000C945D000C945D000C945D000C945D00EC
:100020000C945D000C945D000C945D000C945D00DC
:100030000C945D000C945D000C945D000C945D00CC
:100040000C945D000C945D000C946B000C94980073
:100050000C945D000C945D000C945D000C945D00AC
:100060000C945D000C945D004B0511241FBECFEF76
:10007000D8E0DEBFCDBF11E0A0E0B1E0E4EDFFE0ED
:1000800002C005900D92AC33B107D9F721E0ACE383
:10009000B1E001C01D92A93DB207E1F710E0C5E350
:1000A000D0E004C02197FE010E94B905C433D107F6
:1000B000C9F70E943D050C94E8070C94000026E067
:1000C00040E052EC61E070E08CE391E00E94A1011D
:1000D00080E090E008952F932FB72F938F939F93F5
:1000E000EF93FF93E0914C01F0914D018081E091FD
:1000F0005201F091530182FD19C090818091550108
:100100008F5F8F7320915601821741F0E091550166
:10011000F0E0E45CFE4F958F80935501FF91EF91E5
:100120009F918F912F912FBF2F9118958081F6CF9E
:100130001F920F920FB60F9211242F933F934F935C
:100140005F936F937F938F939F93AF93BF93EF933F
:10015000FF938CE391E00E941201FF91EF91BF9118
:10016000AF919F918F917F916F915F914F913F914F
:100170002F910F900FBE0F901F9018958CE391E078
:100180000E94C8009C0181E0232B09F480E00895BF
:10019000FC01818D228D90E0805C9F4F821B910934
:1001A0008F7399270895FC01918D828D981731F0F6
:1001B000828DE80FF11D858D90E008958FEF9FEF00
:1001C0000895FC01918D828D981761F0A28DAE0F7C
:1001D000BF2FB11D5D968C91928D9F5F9F73928F03
:1001E00090E008958FEF9FEF0895FC01538D448DAB
:1001F000252F30E0842F90E0821B930B541710F0D2
:10020000CF960895019708958EEB90E0892B49F0E1
:1002100080E090E0892B29F00E94BE0081110C94AF
:1002200000000895FC01A48DA80FB92FB11DA35A99
:10023000BF4F2C91848D90E001968F739927848F06
:10024000A689B7892C93A089B1898C918370806429
:100250008C93938D848D981306C00288F389E02DCA
:1002600080818F7D80830895CF93DF93EC01888D0B
:1002700081110FC0DF91CF9108950FB607FC0DC01B
:100280008C9185FF0AC0808185FF07C0CE010E9446
:100290001201AA89BB89E889F9898C9185FDEDCF86
:1002A000808186FFEACFE6CFEF92FF920F931F93F4
:1002B000CF93DF93EC01F62E81E0888F9B8D8C8DA0
:1002C00098131AC0E889F989808185FF15C09FB706
:1002D000F894EE89FF896083E889F98980818370C9
:1002E000806480839FBF81E090E0DF91CF911F9178
:1002F0000F91FF90EF9008950B8D10E00F5F1F4F4F
:100300000F731127E02E8C8D8E1579F0EB8DEC0F8D
:10031000FD2FF11DE35AFF4FF0829FB7F8940B8F2A
:10032000EA89FB8980818062DCCF0FB607FCEBCFC6
:10033000E889F989808185FFE6CFCE010E9412010C
:10034000E2CFCF92DF92EF92FF921F93CF93DF9392
:10035000EC016A017B01122FE889F98982E0808330
:10036000C11481EED806E104F104A1F060E079E067
:100370008DE390E0A70196010E9497052150310975
:10038000410951095695479537952795211580E1E3
:10039000380798F0E889F989108260E874E88EE1FE
:1003A00090E0A70196010E9497052150310941096B
:1003B00051095695479537952795EC85FD853083EE
:1003C000EE85FF852083188EEC89FD891083EA89EC
:1003D000FB89808180618083EA89FB8980818860D4
:1003E0008083EA89FB89808180688083EA89FB8930
:1003F00080818F7D8083DF91CF911F91FF90EF905F
:10040000DF90CF900895CF93DF93EC01E881F981DD
:100410000680F781E02D0995EA89FB8980818F7E2E
:100420008083EA89FB898081877F8083EA89FB89D1
:1004300080818F778083EA89FB8980818F7D8083AB
:100440008A8D898FDF91CF910895CF92DF92EF92BD
:10045000FF920F931F93CF93DF937C016A0100E01B
:1004600010E00C151D0551F4C801DF91CF911F91CB
:100470000F91FF90EF90DF90CF900895EB01D7019F
:10048000ED91FC910190F081E02D6991C7010995F2
:10049000892B51F30F5F1F4FBE01E3CFEF92FF9205
:1004A0000F931F93CF93DF938C017B01C0E0D0E0CB
:1004B000F701EC0FFD1F6491611561F0D801ED911A
:1004C000FC910190F081E02DC8010995892B11F074
:1004D0002196EECFCE01DF91CF911F910F91FF902A
:1004E000EF900895DC01FB014481558160817181A9
:1004F000ED91FC910280F381E02D09940C947C0530
:10050000DC01ED91FC910190F081E02D0994382FF0
:10051000292FCB01DB01ED91FC910190F081E02DC1
:10052000632F722F09946EE071E00C947C050F9399
:100530001F93CF93DF93D82FC92F0E944E028C01B7
:100540008D2F9C2F0E949302800F911FDF91CF91DE
:100550001F910F9108950F931F93CF93DF93D82F7F
:10056000C92F0E9472028C018D2F9C2F0E94930232
:10057000800F911FDF91CF911F910F9108950F93DD
:100580001F93CF93DF93D82FC92F0E947C058C0136
:100590008D2F9C2F0E949302800F911FDF91CF918E
:1005A0001F910F9108950F931F93CF93DF93D82F2F
:1005B000C92F0E9480028C018D2F9C2F0E949302D4
:1005C000800F911FDF91CF911F910F9108950F938D
:1005D0001F93CF93DF93D82FC92F0E9487028C01DE
:1005E0008D2F9C2F0E949302800F911FDF91CF913E
:1005F0001F910F9108956F927F928F929F92AF9269
:10060000BF92CF92DF92EF92FF920F931F93CF93FF
:10061000DF93CDB7DEB7A1970FB6F894DEBF0FBE5C
:10062000CDBF3C01142F052F962E872E19A2223004
:1006300008F42AE05E0181E2A80EB11CC22ED12C82
:10064000E12CF12C612F702F892D982DA701960197
:100650000E949705812F902FA92DB82D122F032FBF
:10066000942E852E6A3014F5605DF50162935F016A
:100670008C159D05AE05BF0528F7BF01C3010E947B
:100680007C05A1960FB6F894DEBF0FBECDBFDF91FB
:10069000CF911F910F91FF90EF90DF90CF90BF907F
:1006A000AF909F908F907F906F900895695CDDCFA1
:1006B000CF92DF92EF92FF920F931F93CF93DF932E
:1006C000EC016A017B01C901892B81F4E881F98180
:1006D0000190F081E02D642FCE01DF91CF911F9129
:1006E0000F91FF90EF90DF90CF9009942A30310561
:1006F000F1F42AE0F7FE1BC06DE2CE010E948002F9
:100700008C0144275527BA014C195D096E097F09F0
:100710002AE0CE010E94FB02800F911FDF91CF9152
:100720001F910F91FF90EF90DF90CF900895B70148
:10073000A601CE01DF91CF911F910F91FF90EF9015
:10074000DF90CF900C94FB029A01AB01770F660B00
:10075000770B0C9458030F931F93CF93DF93D82FED
:10076000C92F0E94A4038C018D2F9C2F0E949302FD
:10077000800F911FDF91CF911F910F9108950F93DB
:100780001F93CF93DF93D82FC92F0E9458038C015A
:100790008D2F9C2F0E949302800F911FDF91CF918C
:1007A0001F910F910895F901EF2B41F4DC01ED91B8
:1007B000FC910190F081E02D642F09940C94FB02D0
:1007C0009A01462F50E060E070E00C94D3030F9341
:1007D0001F93CF93DF93D82FC92F0E94E0038C0182
:1007E0008D2F9C2F0E949302800F911FDF91CF913C
:1007F0001F910F9108959A01AB0160E070E00C9495
:10080000D3030F931F93CF93DF93D82FC92F0E9449
:10081000FB038C018D2F9C2F0E949302800F911F50
:10082000DF91CF911F910F9108950F931F93CF9355
:10083000DF93D82FC92F0E94D3038C018D2F9C2FBB
:100840000E949302800F911FDF91CF911F910F9112
:1008500008954F925F926F927F928F929F92AF9284
:10086000BF92CF92DF92EF92FF920F931F93CF939D
:10087000DF93EC016A017B01B22EA7019601C7014B
:10088000B6010E94E40761E171E0811126C02601F2
:100890003701E89477F82FEF3FEF4FE75FE7C301A9
:1008A000B2010E94E40781110CC02FEF3FEF4FE728
:1008B0005FE7C301B2010E94290665E171E01816E5
:1008C00064F02FEF3FEF4FE75FE4C701B6010E94EE
:1008D00075071816ACF469E171E0CE01DF91CF9194
:1008E0001F910F91FF90EF90DF90CF90BF90AF904E
:1008F0009F908F907F906F905F904F900C947C05AD
:100900002FEF3FEF4FE75FECC701B6010E942906CA
:1009100087FDE1CF20E030E0A901C701B6010E94C8
:100920002906812C912C87FF09C06DE2CE010E941F
:1009300080024C01F7FAF094F7F8F09410E0B0E080
:10094000A0E0F0E0EFE3B11247C0A70196016B2FE2
:100950007A2F8F2F9E2F0E94C0056B017C010E9471
:100960009606562E672E782EA92E2AE0462F572F50
:10097000682F792FCE010E94FB028C01080D191DF2
:10098000B114C1F0652D762D872D9A2D0E94C206D7
:100990009B01AC01B601C7010E94BF05F62EE72EF0
:1009A000D82EC92E6EE2CE010E948002080F191FB8
:1009B000B11022C0C801DF91CF911F910F91FF901C
:1009C000EF90DF90CF90BF90AF909F908F907F90EF
:1009D0006F905F904F90089520E030E040E251E446
:1009E0006B2F7A2F8F2F9E2F0E942D06B62FA72FA9
:1009F000F82FE92F1F5FA7CF20E030E040E251E45D
:100A00006F2D7E2D8D2D9C2D0E947907762E872EA1
:100A1000982EA92E0E9496066B014AE050E0CE0166
:100A20000E94FB03080F191FB60180E090E00E94AE
:100A3000C2069B01AC01672D782D892D9A2D0E944D
:100A4000BF05F62EE72ED82EC92EBA94B1CF0C943E
:100A500029040F931F93CF93DF93D82FC92F0E94A0
:100A600029048C018D2F9C2F0E949302800F911FCF
:100A7000DF91CF911F910F9108950E945F00892B04
:100A800039F460E071E08CE391E00E94BF02F9CF9D
:100A900081E090E00895ECE3F1E01382128288EEA9
:100AA00093E0A0E0B0E084839583A683B78381E2DE
:100AB00091E09183808385EC90E09587848784EC36
:100AC00090E09787868780EC90E0918B808B81EC1B
:100AD00090E0938B828B82EC90E0958B848B86ECFC
:100AE00090E0978B868B118E128E138E148E089544
:100AF00080E090E008950895CF93DF93EC01DB014F
:100B0000AB2B81F0FB0101900020E9F73197AF0199
:100B1000461B570BE881F9810280F381E02DDF91BC
:100B2000CF91099480E090E0DF91CF910895A1E208
:100B30001A2EAA1BBB1BFD010DC0AA1FBB1FEE1F57
:100B4000FF1FA217B307E407F50720F0A21BB30BA2
:100B5000E40BF50B661F771F881F991F1A9469F71E
:100B600060957095809590959B01AC01BD01CF017A
:100B70000895EE0FFF1F0590F491E02D0994505851
:100B8000BB27AA270ED076C167D130F06CD120F0F8
:100B900031F49F3F11F41EF45CC10EF4E095E7FBC5
:100BA00052C1E92F78D180F3BA176207730784071F
:100BB000950718F099F4C6F590C10EF4E0950B2E48
:100BC000BA2FA02D062E622F202D072E732F302D29
:100BD000082E842F402D092E952F502DFF27591BAD
:100BE00099F0593F50F4503E68F11A16F040A22F88
:100BF000232F342F4427585FF3CF469537952795F9
:100C0000A795F0405395C9F77EF41F16BA0B620BF7
:100C1000730B840BBAF09150A1F0FF0FBB1F661F3E
:100C2000771F881FC2F70EC0BA0F621F731F841F81
:100C300048F4879577956795B795F7959E3F08F0A7
:100C4000AECF9395880F08F09927EE0F979587956B
:100C50000895D5D008F481E008950CD00BC103D1DC
:100C600040F0FAD030F021F45F3F19F0ECC05111A0
:100C700035C1EFC010D198F39923C9F35523B1F3CF
:100C8000951B550BBB27AA2762177307840738F0FB
:100C90009F5F5F4F220F331F441FAA1FA9F334D059
:100CA0000E2E3AF0E0E831D091505040E695001C0D
:100CB000CAF72AD0FE2F28D0660F771F881FBB1FC8
:100CC000261737074807AB07B0E809F0BB0B802DA4
:100CD0006E2F7F2FFF2793585F4F2AF09E3F5105BD
:100CE00068F0B1C0FBC05F3FECF3983EDCF3869543
:100CF00077956795B795F7959F5FC9F7880F911D11
:100D00009695879597F90895E1E0660F771F881FFC
:100D1000BB1F621773078407BA0720F0621B730BAF
:100D2000840BBA0BEE1F88F7E0950895BCD088F0CD
:100D30009F5790F0B92F9927B751A0F0D1F0660FC7
:100D4000771F881F991F1AF0BA95C9F712C0B130E2
:100D500081F0C3D0B1E00895C0C0672F782F8827F5
:100D6000B85F39F0B93FCCF3869577956795B39521
:100D7000D9F73EF490958095709561957F4F8F4F90
:100D80009F4F0895E89409C097FB3EF49095809595
:100D9000709561957F4F8F4F9F4F9923A9F0F92F41
:100DA00096E9BB279395F695879577956795B795BF
:100DB000F111F8CFFAF4BB0F11F460FF1BC06F5FA5
:100DC0007F4F8F4F9F4F16C0882311F096E911C0B7
:100DD000772321F09EE8872F762F05C0662371F0D8
:100DE00096E8862F70E060E02AF09A95660F771FEC
:100DF000881FDAF7880F9695879597F90895990FC8
:100E00000008550FAA0BE0E8FEEF16161706E807D4
:100E1000F907C0F012161306E407F50798F0621BF5
:100E2000730B840B950B39F40A2661F0232B242BCA
:100E3000252B21F408950A2609F4A140A6958FEFE9
:100E4000811D811D089597F99F6780E870E060E03B
:100E500008959FEF80EC089500240A941616170653
:100E600018060906089500240A941216130614069B
:100E700005060895092E0394000C11F4882352F0FE
:100E8000BB0F40F4BF2B11F460FF04C06F5F7F4FB6
:100E90008F4F9F4F089557FD9058440F551F59F09D
:100EA0005F3F71F04795880F97FB991F61F09F3F57
:100EB00079F087950895121613061406551FF2CF80
:100EC0004695F1DF08C0161617061806991FF1CFD0
:100ED00086957105610508940895E894BB276627F7
:100EE0007727862F972F97F9089589DF08F48FEFDA
:100EF00008950AD0BFCFB0DF28F0B5DF18F09523F2
:100F000009F0A1CFA6CFEACFC6DFA8F39923D9F382
:100F10005523C9F3950F50E0551FAA27EE27FF2749
:100F2000BB2700240894679520F4E20FF31FB41F39
:100F30000A1E220F331F441FAA1F6695A9F7779533
:100F400030F4F30FB41F0A1E121E08F46395330F1A
:100F5000441FAA1F221F769599F7879520F4B40F96
:100F60000A1E121E631F440FAA1F221F331F8695DD
:100F7000A9F7862F712D602D11249F5750408AF0BC
:100F8000E1F088234AF0EE0FFF1FBB1F661F771F9B
:100F9000881F91505040A9F79E3F510570F053CFE4
:100FA0009DCF5F3FECF3983EDCF386957795679590
:100FB000B795F795E7959F5FC1F7FE2B880F911DB9
:100FC0009695879597F908951ADF880B990B0895E0
:040FD000F894FFCFC3
:100FD40048656C6C6F2C20776F726C6421000D0A6D
:100FE400006E616E00696E66006F76660000000038
:100FF4000054012502F5003401C800E100D30000CB
:0C1004000000000000250278057B0500BC
:00000001FF
